{
  "_format": "hh-sol-artifact-1",
  "contractName": "TimeLockedVault",
  "sourceName": "contracts/time-locked-vault.sol",
  "abi": [
    {
      "anonymous": false,
      "inputs": [
        {
          "indexed": true,
          "internalType": "address",
          "name": "owner",
          "type": "address"
        },
        {
          "indexed": false,
          "internalType": "uint256",
          "name": "index",
          "type": "uint256"
        }
      ],
      "name": "VaultCreated",
      "type": "event"
    },
    {
      "anonymous": false,
      "inputs": [
        {
          "indexed": true,
          "internalType": "address",
          "name": "owner",
          "type": "address"
        },
        {
          "indexed": false,
          "internalType": "uint256",
          "name": "index",
          "type": "uint256"
        },
        {
          "indexed": false,
          "internalType": "string",
          "name": "key",
          "type": "string"
        }
      ],
      "name": "VaultUnlocked",
      "type": "event"
    },
    {
      "inputs": [
        {
          "internalType": "string",
          "name": "ipfsHash",
          "type": "string"
        },
        {
          "internalType": "string",
          "name": "encryptedKey",
          "type": "string"
        },
        {
          "internalType": "uint256",
          "name": "unlockTime",
          "type": "uint256"
        }
      ],
      "name": "createVault",
      "outputs": [],
      "stateMutability": "nonpayable",
      "type": "function"
    },
    {
      "inputs": [
        {
          "internalType": "address",
          "name": "user",
          "type": "address"
        }
      ],
      "name": "getVaults",
      "outputs": [
        {
          "components": [
            {
              "internalType": "address",
              "name": "owner",
              "type": "address"
            },
            {
              "internalType": "string",
              "name": "ipfsHash",
              "type": "string"
            },
            {
              "internalType": "uint256",
              "name": "unlockTime",
              "type": "uint256"
            },
            {
              "internalType": "string",
              "name": "encryptedKey",
              "type": "string"
            },
            {
              "internalType": "bool",
              "name": "unlocked",
              "type": "bool"
            }
          ],
          "internalType": "struct TimeLockedVault.Vault[]",
          "name": "",
          "type": "tuple[]"
        }
      ],
      "stateMutability": "view",
      "type": "function"
    },
    {
      "inputs": [
        {
          "internalType": "uint256",
          "name": "index",
          "type": "uint256"
        }
      ],
      "name": "unlockVault",
      "outputs": [
        {
          "internalType": "string",
          "name": "",
          "type": "string"
        }
      ],
      "stateMutability": "nonpayable",
      "type": "function"
    },
    {
      "inputs": [
        {
          "internalType": "address",
          "name": "",
          "type": "address"
        },
        {
          "internalType": "uint256",
          "name": "",
          "type": "uint256"
        }
      ],
      "name": "vaults",
      "outputs": [
        {
          "internalType": "address",
          "name": "owner",
          "type": "address"
        },
        {
          "internalType": "string",
          "name": "ipfsHash",
          "type": "string"
        },
        {
          "internalType": "uint256",
          "name": "unlockTime",
          "type": "uint256"
        },
        {
          "internalType": "string",
          "name": "encryptedKey",
          "type": "string"
        },
        {
          "internalType": "bool",
          "name": "unlocked",
          "type": "bool"
        }
      ],
      "stateMutability": "view",
      "type": "function"
    }
  ],
  "bytecode": "0x608060405234801561001057600080fd5b506114d6806100206000396000f3fe608060405234801561001057600080fd5b506004361061004c5760003560e01c806357aa6f49146100515780637bbfc69e14610081578063b5eb627a146100b5578063fe7c9c92146100d1575b600080fd5b61006b60048036038101906100669190610941565b610101565b60405161007891906109fe565b60405180910390f35b61009b60048036038101906100969190610a7e565b610303565b6040516100ac959493929190610af7565b60405180910390f35b6100cf60048036038101906100ca9190610c8d565b610493565b005b6100eb60048036038101906100e69190610d18565b6106bb565b6040516100f89190610efb565b60405180910390f35b606060008060003373ffffffffffffffffffffffffffffffffffffffff1673ffffffffffffffffffffffffffffffffffffffff168152602001908152602001600020838154811061015557610154610f1d565b5b9060005260206000209060050201905080600201544210156101ac576040517f08c379a00000000000000000000000000000000000000000000000000000000081526004016101a390610f98565b60405180910390fd5b8060040160009054906101000a900460ff16156101fe576040517f08c379a00000000000000000000000000000000000000000000000000000000081526004016101f590611004565b60405180910390fd5b60018160040160006101000a81548160ff0219169083151502179055503373ffffffffffffffffffffffffffffffffffffffff167f4b602fe7e5180bbd902916736c946ce1d58c68fe383fe3dd158c3308c63d48df848360030160405161026692919061111d565b60405180910390a280600301805461027d90611053565b80601f01602080910402602001604051908101604052809291908181526020018280546102a990611053565b80156102f65780601f106102cb576101008083540402835291602001916102f6565b820191906000526020600020905b8154815290600101906020018083116102d957829003601f168201915b5050505050915050919050565b6000602052816000526040600020818154811061031f57600080fd5b9060005260206000209060050201600091509150508060000160009054906101000a900473ffffffffffffffffffffffffffffffffffffffff169080600101805461036990611053565b80601f016020809104026020016040519081016040528092919081815260200182805461039590611053565b80156103e25780601f106103b7576101008083540402835291602001916103e2565b820191906000526020600020905b8154815290600101906020018083116103c557829003601f168201915b5050505050908060020154908060030180546103fd90611053565b80601f016020809104026020016040519081016040528092919081815260200182805461042990611053565b80156104765780601f1061044b57610100808354040283529160200191610476565b820191906000526020600020905b81548152906001019060200180831161045957829003601f168201915b5050505050908060040160009054906101000a900460ff16905085565b4281116104d5576040517f08c379a00000000000000000000000000000000000000000000000000000000081526004016104cc90611199565b60405180910390fd5b6000803373ffffffffffffffffffffffffffffffffffffffff1673ffffffffffffffffffffffffffffffffffffffff1681526020019081526020016000206040518060a001604052803373ffffffffffffffffffffffffffffffffffffffff16815260200185815260200183815260200184815260200160001515815250908060018154018082558091505060019003906000526020600020906005020160009091909190915060008201518160000160006101000a81548173ffffffffffffffffffffffffffffffffffffffff021916908373ffffffffffffffffffffffffffffffffffffffff16021790555060208201518160010190816105d89190611350565b506040820151816002015560608201518160030190816105f89190611350565b5060808201518160040160006101000a81548160ff02191690831515021790555050503373ffffffffffffffffffffffffffffffffffffffff167fa510df27d6e51efd91d3f55722bad1f26bf924a63e5dcee07c2ab4c3d4992dcc60016000803373ffffffffffffffffffffffffffffffffffffffff1673ffffffffffffffffffffffffffffffffffffffff168152602001908152602001600020805490506106a19190611451565b6040516106ae9190611485565b60405180910390a2505050565b60606000808373ffffffffffffffffffffffffffffffffffffffff1673ffffffffffffffffffffffffffffffffffffffff168152602001908152602001600020805480602002602001604051908101604052809291908181526020016000905b828210156108ec57838290600052602060002090600502016040518060a00160405290816000820160009054906101000a900473ffffffffffffffffffffffffffffffffffffffff1673ffffffffffffffffffffffffffffffffffffffff1673ffffffffffffffffffffffffffffffffffffffff1681526020016001820180546107a490611053565b80601f01602080910402602001604051908101604052809291908181526020018280546107d090611053565b801561081d5780601f106107f25761010080835404028352916020019161081d565b820191906000526020600020905b81548152906001019060200180831161080057829003601f168201915b505050505081526020016002820154815260200160038201805461084090611053565b80601f016020809104026020016040519081016040528092919081815260200182805461086c90611053565b80156108b95780601f1061088e576101008083540402835291602001916108b9565b820191906000526020600020905b81548152906001019060200180831161089c57829003601f168201915b505050505081526020016004820160009054906101000a900460ff1615151515815250508152602001906001019061071b565b505050509050919050565b6000604051905090565b600080fd5b600080fd5b6000819050919050565b61091e8161090b565b811461092957600080fd5b50565b60008135905061093b81610915565b92915050565b60006020828403121561095757610956610901565b5b60006109658482850161092c565b91505092915050565b600081519050919050565b600082825260208201905092915050565b60005b838110156109a857808201518184015260208101905061098d565b60008484015250505050565b6000601f19601f8301169050919050565b60006109d08261096e565b6109da8185610979565b93506109ea81856020860161098a565b6109f3816109b4565b840191505092915050565b60006020820190508181036000830152610a1881846109c5565b905092915050565b600073ffffffffffffffffffffffffffffffffffffffff82169050919050565b6000610a4b82610a20565b9050919050565b610a5b81610a40565b8114610a6657600080fd5b50565b600081359050610a7881610a52565b92915050565b60008060408385031215610a9557610a94610901565b5b6000610aa385828601610a69565b9250506020610ab48582860161092c565b9150509250929050565b610ac781610a40565b82525050565b610ad68161090b565b82525050565b60008115159050919050565b610af181610adc565b82525050565b600060a082019050610b0c6000830188610abe565b8181036020830152610b1e81876109c5565b9050610b2d6040830186610acd565b8181036060830152610b3f81856109c5565b9050610b4e6080830184610ae8565b9695505050505050565b600080fd5b600080fd5b7f4e487b7100000000000000000000000000000000000000000000000000000000600052604160045260246000fd5b610b9a826109b4565b810181811067ffffffffffffffff82111715610bb957610bb8610b62565b5b80604052505050565b6000610bcc6108f7565b9050610bd88282610b91565b919050565b600067ffffffffffffffff821115610bf857610bf7610b62565b5b610c01826109b4565b9050602081019050919050565b82818337600083830152505050565b6000610c30610c2b84610bdd565b610bc2565b905082815260208101848484011115610c4c57610c4b610b5d565b5b610c57848285610c0e565b509392505050565b600082601f830112610c7457610c73610b58565b5b8135610c84848260208601610c1d565b91505092915050565b600080600060608486031215610ca657610ca5610901565b5b600084013567ffffffffffffffff811115610cc457610cc3610906565b5b610cd086828701610c5f565b935050602084013567ffffffffffffffff811115610cf157610cf0610906565b5b610cfd86828701610c5f565b9250506040610d0e8682870161092c565b9150509250925092565b600060208284031215610d2e57610d2d610901565b5b6000610d3c84828501610a69565b91505092915050565b600081519050919050565b600082825260208201905092915050565b6000819050602082019050919050565b610d7a81610a40565b82525050565b600082825260208201905092915050565b6000610d9c8261096e565b610da68185610d80565b9350610db681856020860161098a565b610dbf816109b4565b840191505092915050565b610dd38161090b565b82525050565b610de281610adc565b82525050565b600060a083016000830151610e006000860182610d71565b5060208301518482036020860152610e188282610d91565b9150506040830151610e2d6040860182610dca565b5060608301518482036060860152610e458282610d91565b9150506080830151610e5a6080860182610dd9565b508091505092915050565b6000610e718383610de8565b905092915050565b6000602082019050919050565b6000610e9182610d45565b610e9b8185610d50565b935083602082028501610ead85610d61565b8060005b85811015610ee95784840389528151610eca8582610e65565b9450610ed583610e79565b925060208a01995050600181019050610eb1565b50829750879550505050505092915050565b60006020820190508181036000830152610f158184610e86565b905092915050565b7f4e487b7100000000000000000000000000000000000000000000000000000000600052603260045260246000fd5b7f5661756c74206973207374696c6c206c6f636b65640000000000000000000000600082015250565b6000610f82601583610979565b9150610f8d82610f4c565b602082019050919050565b60006020820190508181036000830152610fb181610f75565b9050919050565b7f416c726561647920756e6c6f636b656400000000000000000000000000000000600082015250565b6000610fee601083610979565b9150610ff982610fb8565b602082019050919050565b6000602082019050818103600083015261101d81610fe1565b9050919050565b7f4e487b7100000000000000000000000000000000000000000000000000000000600052602260045260246000fd5b6000600282049050600182168061106b57607f821691505b60208210810361107e5761107d611024565b5b50919050565b60008190508160005260206000209050919050565b600081546110a681611053565b6110b08186610979565b945060018216600081146110cb57600181146110e157611114565b60ff198316865281151560200286019350611114565b6110ea85611084565b60005b8381101561110c578154818901526001820191506020810190506110ed565b808801955050505b50505092915050565b60006040820190506111326000830185610acd565b81810360208301526111448184611099565b90509392505050565b7f556e6c6f636b2074696d65206d75737420626520696e20667574757265000000600082015250565b6000611183601d83610979565b915061118e8261114d565b602082019050919050565b600060208201905081810360008301526111b281611176565b9050919050565b60006020601f8301049050919050565b600082821b905092915050565b6000600883026112067fffffffffffffffffffffffffffffffffffffffffffffffffffffffffffffffff826111c9565b61121086836111c9565b95508019841693508086168417925050509392505050565b6000819050919050565b600061124d6112486112438461090b565b611228565b61090b565b9050919050565b6000819050919050565b61126783611232565b61127b61127382611254565b8484546111d6565b825550505050565b600090565b611290611283565b61129b81848461125e565b505050565b5b818110156112bf576112b4600082611288565b6001810190506112a1565b5050565b601f821115611304576112d581611084565b6112de846111b9565b810160208510156112ed578190505b6113016112f9856111b9565b8301826112a0565b50505b505050565b600082821c905092915050565b600061132760001984600802611309565b1980831691505092915050565b60006113408383611316565b9150826002028217905092915050565b6113598261096e565b67ffffffffffffffff81111561137257611371610b62565b5b61137c8254611053565b6113878282856112c3565b600060209050601f8311600181146113ba57600084156113a8578287015190505b6113b28582611334565b86555061141a565b601f1984166113c886611084565b60005b828110156113f0578489015182556001820191506020850194506020810190506113cb565b8683101561140d5784890151611409601f891682611316565b8355505b6001600288020188555050505b505050505050565b7f4e487b7100000000000000000000000000000000000000000000000000000000600052601160045260246000fd5b600061145c8261090b565b91506114678361090b565b925082820390508181111561147f5761147e611422565b5b92915050565b600060208201905061149a6000830184610acd565b9291505056fea26469706673582212205cb89f35ca9475131c4cf15574b7445e4f6c3b6937af6341b8b2478b81b1c27664736f6c63430008140033",
  "linkReferences": {},
  "deployedLinkReferences": {}
}